:100B66004578706C6F726520456D62656464656476
:100B7600004C636420382D626974204D6F646500F3
:1009FB007556FF7557FF7558FF7559FF755A047576
:100A0B005B05755C06755D077B027D01E4FF1207D4
:100A1B00747D107F02120A377BFF7A0B7966120AFC
:0C0A2B00FB7BFF7A0B7977120AFB80FE40
:0C0BEA00EF4E6007EF1F70F81E80F52230
:100BBE00AD07AC06ED4C600E7F707E00120BEAEDB9
:070BCE001D70F11C80EE22F6
:1006DA00EF131313541FFE53070714602D14604AB7
:1006EA0014606724036003020773ED600E7401A8A7
:1006FA0007088002C333D8FC4280227401A8070885
:10070A008002C333D8FCF4528022ED600E7401A833
:10071A0007088002C333D8FC4290227401A8070854
:10072A008002C333D8FCF4529022ED600E7401A803
:10073A0007088002C333D8FC42A0227401A8070824
:10074A008002C333D8FCF452A022ED600E7401A8D3
:10075A0007088002C333D8FC42B0227401A80708F4
:09076A008002C333D8FCF452B044
:010773002263
:02063300AD0711
:10063500E4FCED131313541FFF53050714602E1428
:10064500604C14606A240360030206D774017E00BF
:10065500A805088005C333CE33CED8F9FFAB80EFAC
:100665005B60047F0180027F00AC07806574017EBA
:1006750000A805088005C333CE33CED8F9FFAB906B
:10068500EF5B60047F0180027F00AC07804474014A
:100695007E00A805088005C333CE33CED8F9FFAB5D
:1006A500A0EF5B60047F0180027F00AC078023AF71
:1006B5000574017E00A807088005C333CE33CED864
:1006C500F9FFADB0EDFBEF5B60047F0180027F00B9
:0406D500AC07AF04BB
:0106D90022FE
:060C0000043E80C090D00C
:100774008F538D548B558553338554348555358526
:100784005636855737855838855939855A3A855BA1
:100794003B855C3C855D3DE556F4600FE557F460B0
:1007A4000AE558F46005E559B4FF05753204801F65
:1007B400753208E4FDAF561206DAE4FDAF571206AF
:1007C400DAE4FDAF581206DAE4FDAF591206DAE4B2
:1007D400FDAF531206DAE4FDAF541206DAE4FDAFBE
:1007E400551206DAE4FDAF5A1206DAE4FDAF5B12E5
:1007F40006DAE4FDAF5C1206DAE4FDAF5D0206DA68
:100A37008D318F30EFD39402400DED540FFF24908A
:100A4700F540EF24D0F5417F647E00120BBEE532FE
:100A5700B408047F38800AE532B40408120A737FA9
:0C0A670028120AAF7F0E120AAF020BF635
:0A0BF6007F01120AAFE4FF020BD5E5
:100BD500EFC39530500EE4F52E8F2F743E2FF8E6B7
:050BE500FF120AAF221F
:100BA500052FE4F52EE52FC395304003E4F52F74AA
:090BB5003E252FF8E6FF020AAF0D
:100AAF008F57120907E532AF57B408051209B980FD
:100ABF000D120977120B20E557C454F0F557AF57B5
:060ACF00120977020B2062
:100B86008F56E52EC395315005E556B40A03120B70
:0F0B9600A5E556640A6007AF56120AD5052E2250
:100AFB008B538A548955AB53AA54A9551202936050
:100B0B00130555E5557002055414F9120293FF12A3
:050B1B000B8680E222C0
:080890008F5E8B5F8A608961B5
:10089800E55EC395304003E4F55E7F0C120AAFE4D1
:1008A800F562AB5FAA60A961856282758300120256
:1008B800AC6047AF5E120BD5E4F563E563C39531D1
:1008C800501DE5632562F582E433F583AB5FAA60CA
:1008D800A9611202ACFF6007120B86056380DCE594
:1008E80063C3953150097F20120B86056380F07F22
:0F08F800647E00120BBE056280A87F0E020AAF5D
:020501008F4227
:10050300E4F548E5426402704FE5477003020632A2
:1005130014FF74017E00A807088005C333CE33CED1
:10052300D8F9FFEE3395E0FDFCEF5546FFEE554558
:10053300FEED5544FDEC5543FCE4FBFAF9F8C31218
:10054300042F60047F0180027F008F48E548243038
:10055300FF120B86154780B1E4FFFEFDFCAB46AAF4
:1005630045A944A843C312042F701FF548E548C3A7
:1005730095474003020632E548C3940A4003020646
:10058300327F30120B86054880E3E4F548E548C323
:100593009547507CE4FFFEFDFCAB46AA45A944A861
:1005A30043C312042F6051AF42AB07E4FAF9F8AF2B
:1005B30046AE45AD44AC4312038FA804A905AA0671
:1005C300AB07AF42E4FCFDFE120304C3E5469FFF05
:1005D30074492548F8A607AF46AE45AD44AC43C0C1
:1005E30007AF42AB07E4FAF9F8D00712038F8F463F
:1005F3008E458D448C438013E547F46013E547D360
:10060300940A500C74492548F8E4F605480205900D
:10061300E548601B2448F8E6FFD394094006EF241D
:0F06230037FF8004E62430FF120B86154880E174
:0106320022A5
:060003008B088A09890A3E
:10000900751D00751E00751F0B8B1A8A1B891CAB89
:100019001AAA1BA91C120293FF7003020292F52C63
:100029006425600302027F04251CF51CE4351BF5D9
:100039001BFAA91C120293F52CC3648094B04043A7
:10004900D3E52C648094B9503AE4F52DC3E52C64CA
:100059008094B04031D3E52C648094B95028E52CC4
:1000690024D0FFE52D75F00AA42FF52D7401251C68
:10007900F51CE4351BF51BAB1AFAA91C120293F502
:100089002C80C9752DFFE52C120480027B25022ADC
:100099004200BF4301164402635301785501CE580B
:1000A90001F86200BF6300D86402637301537501EC
:1000B900A37800000284AB1DE51FF92402F51FE5B2
:1000C9001EFA3400F51E1202D9F52CFF020281AB8B
:1000D9001DE51FF92402F51FE51EFA3400F51E126D
:1000E90002D9F52185F020C3E52064809480501061
:1000F900C3E49521F521E49520F5207F2D120B8687
:10010900AE20EE3395E08521468E45805CAB1DE53A
:100119001FF92404F51FE51EFA3400F51E120440E8
:100129008F258E248D238C22EC3350101204218FBD
:10013900258E248D238C227F2D120B8685254685BD
:1001490024458523448522438048AB1DE51FF924B6
:1001590002F51FE51EFA3400F51E1202D9F52785AE
:10016900F026FFE48F46852645F544F5438023AB09
:100179001DE51FF92404F51FE51EFA3400F51E12CA
:1001890004408F2B8E2A8D298C288F468E458D44CD
:100199008C43852D477F0A02025EAB1DE51FF924BA
:1001A90002F51FE51EFA3400F51E1202D9F527855E
:1001B900F026FFE48F46852645F544F543852D470E
:1001C9007F1002025EAB1DE51FF92404F51FE51E31
:1001D900FA3400F51E1204408F2B8E2A8D298C28A3
:1001E9008F468E458D448C43852D477F108066ABA5
:1001F9001DE51FF92402F51FE51EFA3400F51E124C
:1002090002D9F52785F026E52DB4FF03752D10E4F5
:10021900852746852645F544F543852D477F028088
:1002290034AB1DE51FF92404F51FE51EFA3400F56A
:100239001E1204408F2B8E2A8D298C28E52DB4FFA0
:1002490003752D10852B46852A4585294485284324
:10025900852D477F021205018021AB1DE51FF92479
:1002690003F51FE51EFA3400F51E120460120AFB9D
:1002790080097F258002AF2C120B867401251CF59D
:090289001CE4351BF51B020018F2
:010292002249
:100AD5008F57120907E532AF57B408051209B980D7
:100AE5000D120977120B43E557C454F0F557AF576C
:060AF500120977020B4319
:10090700E534F460637D01AF3D1206DAE4FDAF33F1
:100917001206DA7D01AF341206DAE4FDAF351206AE
:10092700DA7F0A7E00120BEA7D01AF351206DA7F05
:100937000A7E00120BEAAF3D1206338F58E532B438
:10094700041CE4FDAF351206DA7F0A7E00120BEABB
:100957007D01AF351206DA7F0A7E00120BEAE558F1
:0F09670070B8FDAF3D0206DA7F017E00120BBEB5
:01097600225E
:100A73007F30120977120B207F647E00120BBE7F3A
:100A830030120977120B207FC87E00120BEA7F30E9
:100A9300120977120B207FC87E00120BEA7F201207
:0C0AA3000977120B207FC87E00020BEACE
:100977008F58E55830E4047D0180027D00AF3A12BC
:1009870006DAE55830E5047D0180027D00AF3B12B1
:1009970006DAE55830E6047D0180027D00AF3C129F
:1009A70006DAE55830E7047D0180027D00AF3D029D
:0209B70006DA5E
:1009B9008F58E55830E0047D0180027D00AF361282
:1009C90006DAE55830E1047D0180027D00AF371277
:1009D90006DAE55830E2047D0180027D00AF381265
:1009E90006DAE55830E3047D0180027D00AF390263
:0209F90006DA1C
:100B2000E4FDAF331206DAE4FDAF341206DA7D01DC
:100B3000AF351206DA7F0A7E00120BEAE4FDAF350C
:030B40000206DAD0
:100B43007D01AF331206DAE4FDAF341206DA7D011C
:100B5300AF351206DA7F0A7E00120BEAE4FDAF35E9
:030B63000206DAAD
:03000000020804EF
:0C080400787FE4F6D8FD75816302084B94
:10029300BB010689828A83E0225002E722BBFE0269
:0902A300E32289828A83E493229C
:1002AC00BB010CE58229F582E5833AF583E0225007
:1002BC0006E92582F8E622BBFE06E92582F8E22251
:0D02CC00E58229F582E5833AF583E493226B
:1002D900BB010A89828A83E0F5F0A3E022500687F0
:1002E900F009E71922BBFE07E3F5F009E3192289B2
:0B02F900828A83E493F5F074019322E5
:10030400E88FF0A4CC8BF0A42CFCE98EF0A42CFC98
:100314008AF0EDA42CFCEA8EF0A4CDA8F08BF0A416
:100324002DCC3825F0FDE98FF0A42CCD35F0FCEB75
:100334008EF0A4FEA9F0EB8FF0A4CFC5F02ECD393A
:0F034400FEE43CFCEAA42DCE35F0FDE43CFC22A7
:1003530075F008758200EF2FFFEE33FECD33CDCC61
:1003630033CCC58233C5829BED9AEC99E5829840E4
:100373000CF582EE9BFEED9AFDEC99FC0FD5F0D6C1
:10038300E4CEFBE4CDFAE4CCF9A88222B800C1B9EB
:100393000059BA002DEC8BF084CFCECDFCE5F0CB29
:1003A300F97818EF2FFFEE33FEED33FDEC33FCEB62
:1003B30033FB10D703994004EB99FB0FD8E5E4F91D
:1003C300FA227818EF2FFFEE33FEED33FDEC33FC0A
:1003D300C933C910D7059BE99A4007EC9BFCE99AFE
:1003E300F90FD8E0E4C9FAE4CCFB2275F010EF2F43
:1003F300FFEE33FEED33FDCC33CCC833C810D70743
:100403009BEC9AE899400AED9BFDEC9AFCE899F87D
:0E0413000FD5F0DAE4CDFBE4CCFAE4C8F92210
:0E042100C3E49FFFE49EFEE49DFDE49CFC22EC
:10042F00EB9FF5F0EA9E42F0E99D42F0E89C45F023
:01043F00229A
:10044000BB010789828A830204B25005E9F80204DD
:10045000A6BBFE05E9F80204BE89828A830204CAAB
:10046000BB010789828A830204E35005E9F802048C
:10047000DABBFE05E9F80204EC89828A830204F5FE
:10048000D083D082F8E4937012740193700DA3A30B
:1004900093F8740193F5828883E47374029368601F
:0604A000EFA3A3A380DF1F
:100810000209FBE493A3F8E493A34003F68001F2FA
:1008200008DFF48029E493A3F85407240CC8C333E9
:10083000C4540F4420C8834004F456800146F6DFB8
:10084000E4800B0102040810204080900C00E47E3C
:10085000019360BCA3FF543F30E509541FFEE493AD
:10086000A360010ECF54C025E060A840B8E493A374
:10087000FAE493A3F8E493A3C8C582C8CAC583CA9F
:10088000F0A3C8C582C8CAC583CADFE9DEE780BE57
:010C060000ED
:0C04A600E6FC08E6FD08E6FE08E6FF2282
:0C04B200E0FCA3E0FDA3E0FEA3E0FF22BD
:0C04BE00E2FC08E2FD08E2FE08E2FF227A
:1004CA00E493FC740193FD740293FE740393FF2278
:0904DA00E6FB08E6FA08E6F92247
:0904E300E0FBA3E0FAA3E0F9221A
:0904EC00E2FB08E2FA08E2F92241
:0C04F500E493FB740193FA740293F92263
:00000001FF
