:1001FB00040800000000040F00000000010E0001C5
:02020B000D00E4
:03000B000201CF20
:1001CF00C0E0C0D0E50EC394325002050E758CFC12
:0801DF00758A67D0D0D0E03230
:0300030002000EEA
:10000E00C0E0C0D075D000C000C001C004C005C0A3
:10001E0006C007850E0C750E00758CFC758A67057B
:10002E000DE50CC394324011750DFE750B00750A6B
:10003E00007509007508008055C3E50D6480948035
:10004E004034E50D648094A0502CE50CC39402401E
:10005E003DE47F01FEFDFC741F950DF9F812013988
:10006E00E50B4FF50BE50A4EF50AE5094DF509E5E9
:10007E00084CF5088018C3E50D648094A0400F85E8
:10008E000B12850A1185091085080F750D00D00712
:0F009E00D006D005D004D001D000D0D0D0E032B1
:1001E700438901758CFC758A67D28CD2A9D288D2D3
:0401F700A8D2AF22B9
:1001B10085121A851119851018850F17E4F512F5A6
:0D01C10011F510F50FAF1AAE19AD18AC17FF
:0101CE00220E
:10018600C2801201E71201B18F168E158D148C13E1
:1001960012014C01A900FF30CF01AD00FF689700A6
:0B01A60000018BD28080DEC28080DA76
:030000000200AD4E
:0C00AD00787FE4F6D8FD75811A0200F49B
:10013900E8600FEFC333FFEE33FEED33FDEC33FC24
:03014900D8F122C8
:10014C00D083D082E4937012740193700DA3A393A7
:10015C00F8740193F5828883E4737402936C7012C3
:10016C007403936D700C7404936E70067405936F26
:0A017C0060DDA3A3A3A3A3A380CA20
:1000B900020186E493A3F8E493A34003F68001F2D6
:1000C90008DFF48029E493A3F85407240CC8C33348
:1000D900C4540F4420C8834004F456800146F6DF17
:1000E900E4800B01020408102040809001FBE47EAB
:1000F900019360BCA3FF543F30E509541FFEE4930C
:10010900A360010ECF54C025E060A840B8E493A3D2
:10011900FAE493A3F8E493A3C8C582C8CAC583CAFD
:10012900F0A3C8C582C8CAC583CADFE9DEE780BEB5
:01020D0000F0
:00000001FF
