:100C5200496E697420446F6E65006E65774B6579E5
:040C62003A255800D7
:100BDC00045600000000045D00000000015C0001F0
:020BEC005B00AC
:03000B00020C0ED6
:100C0E00C0E0C0D0E55CC394325002055C758CFC2C
:080C1E00758A67D0D0D0E032E6
:030003000206CB27
:1006CB00C0E0C0D075D000C000C001C004C005C0E0
:1006DB0006C007855C5A755C00758CFC758A6705CE
:1006EB005BE55AC394324011755BFE755900755822
:1006FB00007557007556008055C3E55B6480948088
:10070B004034E55B648094A0502CE55AC3940240BE
:10071B003DE47F01FEFDFC741F955BF9F812041E8E
:10072B00E5594FF559E5584EF558E5574DF557E551
:10073B00564CF5568018C3E55B648094A0400F853A
:10074B00596085585F85575E85565D755B00D00790
:0F075B00D006D005D004D001D000D0D0D0E032ED
:10092000750BFF750CFF750DFF750EFF750F0475C8
:1009300010057511067512077B027D01E4FF120890
:10094000047D107F02120A8E438901758CFC758A22
:1009500067D28CD2A9D288D2A8D2AF7BFF7A0C7989
:1009600052120B52E4FFFEFDFCAB60AA5FA95EA829
:100970005DC312040D60ED120C727BFF7A0C795C82
:1009800085600E855F0D855E0C855D0B12000EE4A3
:0A099000F560F55FF55EF55D80CAC5
:0C0C6600EF4E6007EF1F70F81E80F522B3
:100C2600AD07AC06ED4C600E7F707E00120C66EDD3
:070C36001D70F11C80EE228D
:10076A00EF131313541FFE53070714602D14604A26
:10077A0014606724036003020803ED600E7401A885
:10078A0007088002C333D8FC4280227401A80708F4
:10079A008002C333D8FCF4528022ED600E7401A8A3
:1007AA0007088002C333D8FC4290227401A80708C4
:1007BA008002C333D8FCF4529022ED600E7401A873
:1007CA0007088002C333D8FC42A0227401A8070894
:1007DA008002C333D8FCF452A022ED600E7401A843
:1007EA0007088002C333D8FC42B0227401A8070864
:0907FA008002C333D8FCF452B0B4
:0108030022D2
:02062400AD0720
:10062600E4FCED131313541FFF53050714602E1437
:10063600604C14606A240360030206C874017E00DD
:10064600A805088005C333CE33CED8F9FFAB80EFBB
:100656005B60047F0180027F00AC07806574017EC9
:1006660000A805088005C333CE33CED8F9FFAB907A
:10067600EF5B60047F0180027F00AC078044740159
:100686007E00A805088005C333CE33CED8F9FFAB6C
:10069600A0EF5B60047F0180027F00AC078023AF80
:1006A6000574017E00A807088005C333CE33CED873
:1006B600F9FFADB0EDFBEF5B60047F0180027F00C8
:0406C600AC07AF04CA
:0106CA00220D
:060BEE00045280C090D00B
:100804008F088D098B0A850847850948850A49851B
:100814000B4A850C4B850D4C850E4D850F4E85106E
:100824004F851150851251E50BF4600FE50CF4600F
:100834000AE50DF46005E50EB4FF05754604801F56
:10084400754608E4FDAF0B12076AE4FDAF0C12070E
:100854006AE4FDAF0D12076AE4FDAF0E12076AE405
:10086400FDAF0812076AE4FDAF0912076AE4FDAFA1
:100874000A12076AE4FDAF0F12076AE4FDAF101213
:10088400076AE4FDAF1112076AE4FDAF1202076ABA
:100A8E008D458F44EFD39402400DED540FFF24900B
:100A9E00F554EF24D0F5557F647E00120C26E54602
:100AAE00B408047F38800AE546B40408120ACA7FE7
:0C0ABE0028120B067F0E120B06020C72B1
:0A0C72007F01120B06E4FF020C3DA7
:100C3D00EFC39544500EE4F5428F4374522FF8E6FE
:050C4D00FF120B06225E
:100BF5000543E4F542E543C395444003E4F54374F6
:090C0500522543F8E6FF020B063C
:100B06008F4012099AE546AF40B40805120A4C8098
:100B16000D120A0A120B77E540C454F0F540AF40B7
:060B2600120A0A020B771F
:100BBD008F3FE542C395455005E53FB40A03120B3F
:0F0BCD00F5E53F640A6007AF3F120B2C0542228B
:100B52008B2E8A2F8930AB2EAA2FA93012029E60CB
:100B6200130530E5307002052F14F912029EFF12B0
:050B72000BBD80E22232
:0204F2008F2E4B
:1004F400E4F534E52E6402704FE5337003020623FD
:1005040014FF74017E00A807088005C333CE33CEE0
:10051400D8F9FFEE3395E0FDFCEF5532FFEE55318F
:10052400FEED5530FDEC552FFCE4FBFAF9F8C3124F
:10053400040D60047F0180027F008F34E534243091
:10054400FF120BBD153380B1E4FFFEFDFCAB32AAF4
:1005540031A930A82FC312040D701FF534E534C33C
:1005640095334003020623E534C3940A400302068C
:10057400237F30120BBD053480E3E4F534E534C346
:100584009533507CE4FFFEFDFCAB32AA31A930A8C0
:100594002FC312040D6051AF2EAB07E4FAF9F8AF84
:1005A40032AE31AD30AC2F12036DA804A905AA06F2
:1005B400AB07AF2EE4FCFDFE1202E2C3E5329FFF5F
:1005C40074352534F8A607AF32AE31AD30AC2FC048
:1005D40007AF2EAB07E4FAF9F8D00712036D8F3298
:1005E4008E318D308C2F8013E533F46013E533D3D3
:1005F400940A500C74352534F8E4F6053402058168
:10060400E534601B2434F8E6FFD394094006EF2454
:0F06140037FF8004E62430FF120BBD153480E160
:0106230022B4
:06000E008B088A09890A33
:10001400751D00751E00751F0B8B1A8A1B891CAB7E
:100024001AAA1BA91C12029EFF700302029DF52C42
:100034006425600302028A04251CF51CE4351BF5C3
:100044001BFAA91C12029EF52CC3648094B0404391
:10005400D3E52C648094B9503AE4F52DC3E52C64BF
:100064008094B04031D3E52C648094B95028E52CB9
:1000740024D0FFE52D75F00AA42FF52D7401251C5D
:10008400F51CE4351BF51BAB1AFAA91C12029EF5EC
:100094002C80C9752DFFE52C1204710286250235CA
:1000A4004200CA43012144026E5301835501D958C9
:1000B40002036200CA6300E364026E73015E7501A9
:1000C400AE780000028FAB1DE51FF92402F51FE591
:1000D4001EFA3400F51E1202B7F52CFF02028CAB97
:1000E4001DE51FF92402F51FE51EFA3400F51E1262
:1000F40002B7F52185F020C3E52064809480501078
:10010400C3E49521F521E49520F5207F2D120BBD44
:10011400AE20EE3395E08521328E31805CAB1DE557
:100124001FF92404F51FE51EFA3400F51E120431EC
:100134008F258E248D238C22EC3350101203FF8FD5
:10014400258E248D238C227F2D120BBD852532858F
:10015400243185233085222F8048AB1DE51FF924E7
:1001640002F51FE51EFA3400F51E1202B7F52785C5
:10017400F026FFE48F32852631F530F52F8023AB4E
:100184001DE51FF92404F51FE51EFA3400F51E12BF
:1001940004318F2B8E2A8D298C288F328E318D300D
:1001A4008C2F852D337F0A020269AB1DE51FF924CC
:1001B40002F51FE51EFA3400F51E1202B7F5278575
:1001C400F026FFE48F32852631F530F52F852D3367
:1001D4007F10020269AB1DE51FF92404F51FE51E1B
:1001E400FA3400F51E1204318F2B8E2A8D298C28A7
:1001F4008F328E318D308C2F852D337F108066ABFE
:100204001DE51FF92402F51FE51EFA3400F51E1240
:1002140002B7F52785F026E52DB4FF03752D10E40C
:10022400852732852631F530F52F852D337F0280E1
:1002340034AB1DE51FF92404F51FE51EFA3400F55F
:100244001E1204318F2B8E2A8D298C28E52DB4FFA4
:1002540003752D10852B32852A3185293085282F69
:10026400852D337F021204F28021AB1DE51FF92492
:1002740003F51FE51EFA3400F51E120451120B5249
:1002840080097F258002AF2C120BBD7401251CF55B
:090294001CE4351BF51B020023DC
:01029D00223E
:100B2C008F4012099AE546AF40B40805120A4C8072
:100B3C000D120A0A120B9AE540C454F0F540AF406E
:060B4C00120A0A020B9AD6
:10099A00E548F460637D01AF5112076AE4FDAF4791
:1009AA0012076A7D01AF4812076AE4FDAF491207D0
:1009BA006A7F0A7E00120C667D01AF4912076A7FC0
:1009CA000A7E00120C66AF511206248F41E546B426
:1009DA00041CE4FDAF4912076A7F0A7E00120C6606
:1009EA007D01AF4912076A7F0A7E00120C66E54153
:0F09FA0070B8FDAF5102076A7F017E00120C2614
:010A090022CA
:100ACA007F30120A0A120B777F647E00120C267F8F
:100ADA0030120A0A120B777FC87E00120C667F302A
:100AEA00120A0A120B777FC87E00120C667F201248
:0C0AFA000A0A120B777FC87E00020C660F
:100A0A008F41E54130E4047D0180027D00AF4E1242
:100A1A00076AE54130E5047D0180027D00AF4F128F
:100A2A00076AE54130E6047D0180027D00AF50127D
:100A3A00076AE54130E7047D0180027D00AF51027B
:020A4A00076A39
:100A4C008F41E54130E0047D0180027D00AF4A1208
:100A5C00076AE54130E1047D0180027D00AF4B1255
:100A6C00076AE54130E2047D0180027D00AF4C1243
:100A7C00076AE54130E3047D0180027D00AF4D0241
:020A8C00076AF7
:100B7700E4FDAF4712076AE4FDAF4812076A7D013B
:100B8700AF4912076A7F0A7E00120C66E4FDAF497F
:030B970002076AE8
:100B9A007D01AF4712076AE4FDAF4812076A7D017B
:100BAA00AF4912076A7F0A7E00120C66E4FDAF495C
:030BBA0002076AC5
:030000000208945F
:0C089400787FE4F6D8FD7581600208DB77
:10029E00BB010689828A83E0225002E722BBFE025E
:0902AE00E32289828A83E4932291
:1002B700BB010A89828A83E0F5F0A3E02250068712
:1002C700F009E71922BBFE07E3F5F009E3192289D4
:0B02D700828A83E493F5F07401932207
:1002E200E88FF0A4CC8BF0A42CFCE98EF0A42CFCBB
:1002F2008AF0EDA42CFCEA8EF0A4CDA8F08BF0A439
:100302002DCC3825F0FDE98FF0A42CCD35F0FCEB97
:100312008EF0A4FEA9F0EB8FF0A4CFC5F02ECD395C
:0F032200FEE43CFCEAA42DCE35F0FDE43CFC22C9
:1003310075F008758200EF2FFFEE33FECD33CDCC83
:1003410033CCC58233C5829BED9AEC99E582984006
:100351000CF582EE9BFEED9AFDEC99FC0FD5F0D6E3
:10036100E4CEFBE4CDFAE4CCF9A88222B800C1B90D
:100371000059BA002DEC8BF084CFCECDFCE5F0CB4B
:10038100F97818EF2FFFEE33FEED33FDEC33FCEB84
:1003910033FB10D703994004EB99FB0FD8E5E4F93F
:1003A100FA227818EF2FFFEE33FEED33FDEC33FC2C
:1003B100C933C910D7059BE99A4007EC9BFCE99A20
:1003C100F90FD8E0E4C9FAE4CCFB2275F010EF2F65
:1003D100FFEE33FEED33FDCC33CCC833C810D70765
:1003E1009BEC9AE899400AED9BFDEC9AFCE899F8A0
:0E03F1000FD5F0DAE4CDFBE4CCFAE4C8F92233
:0E03FF00C3E49FFFE49EFEE49DFDE49CFC220F
:10040D00EB9FF5F0EA9E42F0E99D42F0E89C45F045
:01041D0022BC
:10041E00E8600FEFC333FFEE33FEED33FDEC33FC3C
:03042E00D8F122E0
:10043100BB010789828A830204A35005E9F80204FB
:1004410097BBFE05E9F80204AF89828A830204BBE7
:10045100BB010789828A830204D45005E9F80204AA
:10046100CBBBFE05E9F80204DD89828A830204E63A
:10047100D083D082F8E4937012740193700DA3A31A
:1004810093F8740193F5828883E47374029368602E
:06049100EFA3A3A380DF2E
:1008A000020920E493A3F8E493A34003F68001F245
:1008B00008DFF48029E493A3F85407240CC8C33359
:1008C000C4540F4420C8834004F456800146F6DF28
:1008D000E4800B0102040810204080900BDCE47ED1
:1008E000019360BCA3FF543F30E509541FFEE4931D
:1008F000A360010ECF54C025E060A840B8E493A3E4
:10090000FAE493A3F8E493A3C8C582C8CAC583CA0E
:10091000F0A3C8C582C8CAC583CADFE9DEE780BEC6
:010BF4000000
:0C049700E6FC08E6FD08E6FE08E6FF2291
:0C04A300E0FCA3E0FDA3E0FEA3E0FF22CC
:0C04AF00E2FC08E2FD08E2FE08E2FF2289
:1004BB00E493FC740193FD740293FE740393FF2287
:0904CB00E6FB08E6FA08E6F92256
:0904D400E0FBA3E0FAA3E0F92229
:0904DD00E2FB08E2FA08E2F92250
:0C04E600E493FB740193FA740293F92272
:00000001FF
