:0C19FE00C294C293C296D29575A0FF223D
:10163000EF139290EFC313139291EF1313543F13D0
:101640009292D2937F327E00121A0AD2947F197E30
:1016500000121A0AC2937F327E00121A0AC2943014
:1016600095FDD2967F197E00121A0AAFA07E00C2A5
:0116700096E3
:011671002256
:0C1A0A00EF4E6007EF1F70F81E80F52201
:1019BF00AD07AC06ED4C600E7F707E00121A0AED7B
:0719CF001D70F11C80EE22E7
:051A4B008E7D8F7E225C
:02150C008D0B45
:10150E00750DA0C3EF957EEE957D5045EFF50CE57C
:10151E007E9400E57D94084005EEF50E8007AF063B
:10152E00EE25E0420D1218F9AF0D121919D3E57E12
:10153E009400E57D94084005AF0E121919AF0C12F8
:10154E001919AF0B1219191219577F0A7E001219A9
:01155E00BFCD
:01155F002269
:10121B00E4F50C750DA0C3EF957EEE957D5052EF66
:10122B00F50BE57E9400E57D94084005EEF50E8008
:10123B0007AF06EE25E0420D1218F9AF0D12191982
:10124B00D3E57E9400E57D94084005AF0E12191985
:10125B00AF0B1219191218F9E50D4401FF121919E8
:10126B00E4FF1216F68F0C1219577F0A7E00121A22
:03127B000AAF0CAB
:01127E00224D
:101736008E708F718B728A738974AB72AA73A97457
:1017460012053AFDAF71AE7012150C74012574F5D1
:1017560074E43573F5730571E57170020570AB724B
:0D176600AA73A97490FFFF12055370CE22E4
:0A17EB008E758F768B778A788979E6
:1017F500AF76AE7512121BAB77AA78A979EF1205F1
:101805008074012579F579E43578F5780576E576FE
:0718150070020575EF70D9A8
:01181C0022A9
:100DA600EF131313541FFE53070714602D14604AE4
:100DB60014606724036003020E3FED600E7401A801
:100DC60007088002C333D8FC4280227401A80708B2
:100DD6008002C333D8FCF4528022ED600E7401A861
:100DE60007088002C333D8FC4290227401A8070882
:100DF6008002C333D8FCF4529022ED600E7401A831
:100E060007088002C333D8FC42A0227401A8070851
:100E16008002C333D8FCF452A022ED600E7401A800
:100E260007088002C333D8FC42B0227401A8070821
:090E36008002C333D8FCF452B071
:010E3F002290
:020C6300AD07DB
:100C6500E4FCED131313541FFF53050714602E14F2
:100C7500604C14606A24036003020D0774017E0052
:100C8500A805088005C333CE33CED8F9FFAB80EF76
:100C95005B60047F0180027F00AC07806574017E84
:100CA50000A805088005C333CE33CED8F9FFAB9035
:100CB500EF5B60047F0180027F00AC078044740114
:100CC5007E00A805088005C333CE33CED8F9FFAB27
:100CD500A0EF5B60047F0180027F00AC078023AF3B
:100CE5000574017E00A807088005C333CE33CED82E
:100CF500F9FFADB0EDFBEF5B60047F0180027F0083
:040D0500AC07AF0484
:010D090022C7
:011A50002273
:1018F900C286D2877F017E00121A0AD2867F017EB4
:1019090000121A0AC2877F017E00121A0AC28622B1
:10195700C2867F017E00121A0AC2877F017E0012AB
:0E1967001A0AD2867F017E00121A0AD2872247
:021919008F122B
:10191B00E4F513E5123392871219EBE51225E0F586
:0D192B00120513E513C3940840E90219EBFF
:0216F6008F1251
:1016F800E4F514D287F5137F017E00121A0AD28608
:101708007F017E00121A0AE51425E0F514A287E489
:10171800334214C2860513E513C3940840D9E51271
:0D172800B40105121A2B8003121A33AF14FE
:011735002291
:1019EB007F017E00121A0AD2867F017E00121A0A2C
:0319FB00C286227F
:081A2B00C2871219EBD28722D9
:081A3300D2871219EBD28622C2
:1019750010443031323334353637383941424344F7
:021985004546D5
:1015A7008F588D598B5A850C5B850D54850E558543
:1015B7000F56851057E4F51174582511F8E6FFE426
:1015C700FD120DA60511E511C3940440EBE4F511D6
:1015D70074542511F8E6FF7D01120DA60511E511DA
:0515E700C3940440EB79
:0115EC0022DC
:1012E100E4F50C7458250CF8E6FFE4FD120DA60593
:1012F1000CE50CC3940440EB750D01E4F50C74543A
:10130100250CF8E6FF120C63EF520D050CE50CC33A
:10131100940440EAE50D60E07F0A7E00121A0A7526
:101321000D01E4F50C7454250CF8E6FF120C63EF83
:0F133100520D050CE50CC3940440EAE50D60B9BC
:01134000228A
:10134100E4F50C7458250CF8E6FFE4FD120DA60532
:101351000CE50CC3940440EB750D01E4F50C7454D9
:10136100250CF8E6FF120C63EF520D050CE50CC3DA
:10137100940440EAE50D70E07F0AFE121A0A750D29
:1013810001E4F50C7454250CF8E6FF120C63EF52DE
:0E1391000D050CE50CC3940440EAE50D70BA9E
:01139F00222B
:100F5C00E4F50B1212E1121341E4F509745825095A
:100F6C00F8E6FF7D01120DA60509E509C3940440BE
:100F7C00EBE4F50974582509F8E6FFE4FD120DA61B
:100F8C00E4F50A7454250AF8E6FF120C63EF7005B9
:100F9C00750B018009050AE50AC3940440E5E50BCD
:100FAC006401601574582509F8E6FF7D01120DA641
:100FBC000509E509C3940440BBE509C3940450102A
:100FCC00E50925E025E02444250AF8E6F50B800325
:050FDC00750B78AF0B5E
:010FE10022ED
:06198700046C80C090D04A
:100E40008F088D098B0A850861850962850A63858B
:100E50000B64850C65850D66850E67850F688510AA
:100E60006985116A85126BE50BF4600FE50CF4607F
:100E70000AE50DF46005E50EB4FF05756004801FFA
:100E8000756008E4FDAF0B120DA6E4FDAF0C120D6A
:100E9000A6E4FDAF0D120DA6E4FDAF0E120DA6E403
:100EA000FDAF08120DA6E4FDAF09120DA6E4FDAFDB
:100EB0000A120DA6E4FDAF0F120DA6E4FDAF10124D
:100EC0000DA6E4FDAF11120DA6E4FDAF12020DA6B2
:101773008D5F8F5EEFD39402400DED540FFF2490E5
:10178300F56EEF24D0F56F7F647E001219BFE5601C
:10179300B408047F38800AE560B404081217AF7FE9
:0C17A3002812181D7F0E12181D021A21BA
:0A1A21007F0112181DE4FF0219D620
:1019D600EFC3955E500EE4F55C8F5D746C2FF8E6F0
:0519E600FF12181D2294
:10198E00055DE4F55CE55DC3955E4003E4F55D74CD
:09199E006C255DF8E6FF02181D3E
:10181D008F0C121065E560AF0CB408051216B4807C
:10182D000D1216721218B3E50CC454F0F50CAF0C72
:06183D001216720218B33E
:101938008F0BE55CC3955F5005E50BB40A031219DC
:0F1948008EE50B640A6007AF0B121843055C2293
:101869008B088A09890AAB08AA09A90A12053A60EC
:1018790013050AE50A7002050914F912053AFF125F
:05188900193880E22285
:101843008F0C121065E560AF0CB408051216B48056
:101853000D1216721218D6E50CC454F0F50CAF0C29
:061863001216720218D6F5
:10106500E562F460637D01AF6B120DA6E4FDAF612F
:10107500120DA67D01AF62120DA6E4FDAF63120D40
:10108500A67F0A7E00121A0A7D01AF63120DA67FA4
:101095000A7E00121A0AAF6B120C638F0DE560B45D
:1010A500041CE4FDAF63120DA67F0A7E00121A0A26
:1010B5007D01AF63120DA67F0A7E00121A0AE50DA7
:0F10C50070B8FDAF6B020DA67F017E001219BF40
:0110D40022F9
:1017AF007F301216721218B37F647E001219BF7F3A
:1017BF00301216721218B37FC87E00121A0A7F30C9
:1017CF001216721218B37FC87E00121A0A7F2012E7
:0C17DF0016721218B37FC87E00021A0AAE
:101672008F0DE50D30E4047D0180027D00AF68121C
:101682000DA6E50D30E5047D0180027D00AF6912F3
:101692000DA6E50D30E6047D0180027D00AF6A12E1
:1016A2000DA6E50D30E7047D0180027D00AF6B02DF
:0216B2000DA683
:1016B4008F0DE50D30E0047D0180027D00AF6412E2
:1016C4000DA6E50D30E1047D0180027D00AF6512B9
:1016D4000DA6E50D30E2047D0180027D00AF6612A7
:1016E4000DA6E50D30E3047D0180027D00AF6702A5
:0216F4000DA641
:1018B300E4FDAF61120DA6E4FDAF62120DA67D013A
:1018C300AF63120DA67F0A7E00121A0AE4FDAF630E
:0318D300020DA65D
:1018D6007D01AF61120DA6E4FDAF62120DA67D017A
:1018E600AF63120DA67F0A7E00121A0AE4FDAF63EB
:0318F600020DA63A
:1019A700121A501218F97FD01219197F0712191934
:0819B700E4FF1219190219578F
:100FE2008B0F8A1089111218F97FD0121919E4FF98
:100FF200121919AB0FAA10A91112053AFF121919E9
:10100200AB0FAA10A911900001120553FF12191972
:10101200AB0FAA10A911900002120553FF12191961
:10102200AB0FAA10A911900003120553FF12191950
:10103200AB0FAA10A911900004120553FF1219193F
:10104200AB0FAA10A911900005120553FF1219192E
:10105200AB0FAA10A911900006120553FF1219191D
:0310620002195719
:100D0A008B0F8A1089111218F97FD0121919E4FF72
:100D1A001219191219571218F97FD11219197F01CC
:100D2A001216F6AB0FAA10A911EF1205807F011255
:100D3A0016F6AB0FAA10A911900001EF1205927FC7
:100D4A00011216F6AB0FAA10A911900002EF1205B4
:100D5A00927F011216F6AB0FAA10A911900003EFA9
:100D6A001205927F011216F6AB0FAA10A911900074
:100D7A0004EF1205927F011216F6AB0FAA10A91101
:100D8A00900005EF120592E4FF1216F6AB0FAA10B7
:0C0D9A00A911900006EF120592021957F3
:0B1A1600438920759850D28E02145AAC
:08145A008F0B8E0A8D098C082E
:10146200E47F607E09FDFCAB0BAA0AA909A808C3A8
:1014720012070A40367F007EC27D017C00A808D395
:1014820012070A5026E47F807E01FDFCA80812059F
:10149200DFA804A905AA06AB077F007EC07DA87C51
:1014A2000012066A1206FC8F0C8003750C5D850C17
:0114B2008DAC
:0114B3002216
:081A3B003098FDC298AF99221A
:081A43008F993099FDC2992230
:10188E008B338A348935AB33AA34A93512053A60C5
:10189E00130535E5357002053414F912053AFF12B9
:0518AE001A4380E22254
:061560008B7A8A7B897C76
:10156600E4FE121A3BAD07121A43ED640D6003BD8B
:101576000A11AB7AAA7BA97C8E82758300E41205D8
:1015860092801BBD0806EE60031E80D6AB7AAA7B4E
:10159600A97C8E82758300ED1205920E80C4AF067B
:0115A6002222
:020A64008F33CE
:100A6600E4F539E5336402704FE5387003020B95FF
:100A760014FF74017E00A807088005C333CE33CE69
:100A8600D8F9FFEE3395E0FDFCEF5537FFEE55360E
:100A9600FEED5535FDEC5534FCE4FBFAF9F8C312CE
:100AA600070A60047F0180027F008F39E539243010
:100AB600FF121A43153880B1E4FFFEFDFCAB37AADE
:100AC60036A935A834C312070A701FF539E539C3AC
:100AD60095384003020B95E539C3940A4003020B8F
:100AE600957F30121A43053980E3E4F539E539C3B9
:100AF6009538507CE4FFFEFDFCAB37AA36A935A835
:100B060034C312070A6051AF33AB07E4FAF9F8AF02
:100B160037AE36AD35AC3412066AA804A905AA0666
:100B2600AB07AF33E4FCFDFE1205DFC3E5379FFFDD
:100B3600743A2539F8A607AF37AE36AD35AC34C0B2
:100B460007AF33AB07E4FAF9F8D00712066A8F3716
:100B56008E368D358C348013E538F46013E538D342
:100B6600940A500C743A2539F8E4F60539020AF36A
:100B7600E539601B2439F8E6FFD394094006EF24D3
:0F0B860037FF8004E62430FF121A43153980E14F
:010B9500223D
:0607DC008B0F8A10891149
:1007E2007524007525007526128B218A228923AB78
:1007F20021AA22A92312053AFF7003020A63F531E6
:1008020064256003020A50042523F523E43522F50A
:1008120022FAA92312053AF531C3648094B0404309
:10082200D3E531648094B9503AE4F532C3E53164DA
:100832008094B04031D3E531648094B95028E531D9
:1008420024D0FFE53275F00AA42FF5327401252376
:10085200F523E43522F522AB21FAA92312053AF554
:100862003180C97532FFE53112075B0A4C2509FB5D
:100872004208984308E7440A3453094955099F58E6
:1008820009C96208986308AF640A347309247509B8
:10089200747800000A55AB240526E526AA257002C5
:1008A200052514F912053AF531FF020A52AB24E587
:1008B20026F92402F526E525FA3400F5251205B4B9
:1008C200FDACF0C3EC64809480500CC3E49DFDE465
:1008D2009CFC7F2D121A43AE04AF05EE3395E08FD8
:1008E200378E36805CAB24E526F92404F526E5250F
:1008F200FA3400F52512071B8F2A8E298D288C27A2
:10090200EC3350101206FC8F2A8E298D288C277FFB
:100912002D121A43852A37852936852835852734AD
:100922008048AB24E526F92402F526E525FA3400B1
:10093200F5251205B4F52C85F02BFFE48F37852BB6
:1009420036F535F5348023AB24E526F92404F52663
:10095200E525FA3400F52512071B8F308E2F8D2ED8
:100962008C2D8F378E368D358C348532387F0A0246
:100972000A2FAB24E526F92402F526E525FA3400F0
:10098200F5251205B4F52C85F02BFFE48F37852B66
:1009920036F535F5348532387F10020A2FAB24E55F
:1009A20026F92404F526E525FA3400F52512071B5D
:1009B2008F308E2F8D2E8C2D8F378E368D358C3439
:1009C2008532387F108066AB24E526F92402F526AD
:1009D200E525FA3400F5251205B4F52C85F02BE552
:1009E20032B4FF03753210E4852C37852B36F5358A
:1009F200F5348532387F028034AB24E526F92404AD
:100A0200F526E525FA3400F52512071B8F308E2FC7
:100A12008D2E8C2DE532B4FF03753220853037855B
:100A22002F36852E35852D348532387F02120A64A1
:100A32008021AB24E526F92403F526E525FA3400C6
:100A4200F52512073B12188E80097F258002AF31EF
:100A5200121A4374012523F523E43522F5220207F5
:010A6200F1A2
:010A63002270
:100003000A0D54657374206D656E752055747261A5
:10001300207835312076322E300D0A20313A475080
:10002300494F20426C696E6B0D0A20323A4C4344AF
:1000330020382D626974200A0D20333A4C43442042
:10004300342D6269740A0D20343A372D5365676D78
:10005300656E740A0D20353A5254430A0D20363A20
:10006300454550524F4D0A0D20373A4144430A0D3E
:1000730020383A4B6579706164200A0D2053656C12
:10008300656374204F6E65206F6620746865206118
:10009300626F7665206F7074696F6E7320616E6432
:1000A3002052657365742074686520626F617264A1
:1000B30020616674657220746573742069732064AB
:1000C3006F6E650A0D000A0D436F6E6E65637420D3
:1000D300616E7920494F2050696E7320746F2062DE
:1000E300757A7A65722C2072656C6179732C206C39
:1000F30065647320000A0D4D616B6520636F6E6E3E
:10010300656374696F6E7320616E6420686974201F
:10011300276B2720746F207465737420000A0D20E9
:100123004C434420446174614275733A2050322039
:1001330020436F6E74726F6C3A2052532D50302EE1
:10014300302052572D50302E3120454E2D50302E19
:100153003220000A0D204D616B6520636F6E6E6562
:100163006374696F6E7320616E64206869742027FD
:100173006B2720746F207465737420004578706C4E
:100183006F726520456D626564646564004C6364E9
:1001930020382D626974204D6F6465000A0D204C70
:1001A300434420446174614275733A205032204DB8
:1001B300736220626974732850322E342D50322EAC
:1001C300372920436F6E74726F6C3A2052532D504F
:1001D300302E302052572D50302E3120454E2D5089
:1001E300302E3220004C636420342D626974204D1C
:1001F3006F6465000A0D205365676D656E74204456
:100203006174614275733A205032205365672073DD
:10021300656C6563743A2053312D3E50302E302087
:1002230053322D3E50302E312053332D3E50302E3D
:10023300322053342D3E50302E33000A0D4D616B66
:100243006520636F6E6E656374696F6E7320616E94
:10025300642068697420276B2720746F207465738A
:10026300742120000A0D436F6E6E656374696F6EAF
:10027300732053434C2D3E50302E36205344412D92
:100283003E50302E37000A0D204D616B6520636FA1
:100293006E6E656374696F6E7320616E6420686946
:1002A3007420276B2720746F2074657374212000DA
:1002B3000A0D74696D653A2532783A2532783A2504
:1002C300327820200A446174653A2532782F25322A
:1002D300782F253278000A0D456570726F6D2057AF
:1002E300726974653A200A002020456570726F6D4B
:1002F30020526561643A20000A0D4144432D303891
:10030300303920436F6E6E656374696F6E733A0A9A
:100313000D4461746142757320202D2D3E205032AF
:100323002020200A0D6164635F41202020202D2DB1
:100333003E2050312E30200A0D6164635F4220203D
:1003430020202D2D3E2050312E31200A0D61646373
:100353005F43202020202D2D3E2050312E32200AB5
:100363000D6164635F414C4520202D2D3E205031AB
:100373002E33200A0D6164635F53746172742D2DF3
:100383003E2050312E34200A0D6164635F454F4394
:1003930020202D2D3E2050312E35200A0D6164631F
:1003A3005F4F452020202D2D3E2050312E36200A30
:1003B3000D004D616B6520636F6E6E656374696FCD
:1003C3006E7320616E642068697420276B27207424
:1003D3006F207465737421000A0D74656D703A257E
:1003E300336420706F743A253364206C69676874D2
:1003F3003A253364000A0D436F6E6E656374696F4B
:100403006E733A20506F72742032000A0D4D616B87
:100413006520636F6E6E656374696F6E7320616EC2
:10042300642068697420276B2720746F20746573B8
:100433007421000A0D204B65793A256300F9A4B0B5
:01044300991F
:1010D5007F807E257D007C00121A167BFF7A0079C1
:1010E5000312188E121A3B8F7FE57F24CFB40800B8
:1010F50050F790110575F003A4C58325F0C58373DA
:1011050002111D02112202112702112C02113102B6
:10111500113602113B021140120B9680CC12127F40
:1011250080C71213FF80C21211B580BD1211458010
:10113500B81213A080B31214B480AE1215ED80A9B5
:100B9600750A00750B017BFF7A0079C91207DC7BA9
:100BA600FF7A0079F81207DC121A3BBF6BFAE4F5FC
:100BB60008F50975B0FF75A0FF7590FF7580FF7F7A
:100BC600647E001219BFE4F5B0F5A0F590F5807FBC
:100BD60064FE1219BF0509E50970020508C39402EF
:100BE600E508940040CD750A00750B01E4F508F59B
:100BF60009AF0B8FB08FA08F908F807F647E00121D
:100C060019BFE50B25E0F50BE50A33F50A0509E5FD
:100C16000970020508C39408E508940040D3750AD4
:100C260000750B80E4F508F509C3E5099408E508A5
:100C360094004003020BB4AF0B8FB08FA08F908F40
:100C4600807F647E001219BFE50AC313F50AE50B1F
:0D0C560013F50B0509E50970D0050880CCE9
:10127F007BFF7A01792012188E7BFF7A0179561243
:10128F0007DC121A3BBF6BFA750B10750C11750D3D
:10129F0012750E13750F147510157511167512172B
:1012AF007B027D01E4FF120E407D107F0212177347
:1012BF007F647E001219BF7BFF7A01797F12186954
:1012CF007F647E001219BF7BFF7A01799012186933
:0212DF0080FE8F
:1013FF007BFF7A01799F12188E7BFF7A0179561243
:10140F0007DC121A3BBF6BFA750BFF750CFF750DDE
:10141F00FF750EFF750F14751015751116751217D0
:10142F007B027D01E4FF120E407D107F02121773C5
:10143F007F647E001219BF7BFF7A01797F121869D2
:0B144F007BFF7A0179E812186980FE2B
:1011B50078087C007D007BFF7A0479407E007F04FF
:1011C5001205147BFF7A0179F712188E7BFF7A02DC
:1011D500793E1207DC121A3BBF6BFAE4F5A0F580E5
:1011E5007580018508A07F0A7E00121A0A758002A3
:1011F5008509A07F0A7E00121A0A758004850AA057
:101205007F0A7E00121A0A758008850BA07F0A7E68
:0612150000121A0A80CA53
:101145007BFF7A0279671207DC7BFF7A02798912C5
:1011550007DC121A3BBF6BFA1219A7750A1075093D
:1011650040E4F508750C01750D01750E16750B0536
:10117500FB7A007908120FE27B007A007908120DDC
:101185000A7BFF7A0279B3751200850A137514007C
:10119500850915751600850817751800850C1975CC
:1011A5001A00850D1B751C00850E1D1207DC80C8F5
:1013A000E4F5087509587BFF7A0279671207DC7B40
:1013B000FF7A0279891207DC121A3BBF6BFA7F00B1
:1013C0007E08121A4B7509417BFF7A0279D91218EF
:1013D0008EAF09121A43AF087E00AD0912150C7BBF
:1013E000FF7A0279EB12188EAF087E0012121B8F63
:0F13F0000A121A430509E509D3945A40CB80FE2F
:1014B4007BFF7A0279FB1207DC7BFF7A0379B51292
:1014C40007DC121A3BBF6BFA1219FEE4FF12163046
:1014D400EF25E0F509EE33F5087F011216308E0C86
:1014E4008F0D7F021216308E0A8F0B7BFF7A0379E1
:1014F400DB850812850913850C14850D15850A16DC
:08150400850B171207DC80C300
:1015ED007BFF7A0379F81207DC7BFF7A04790E1200
:1015FD0007DC121A3BBF6BFA750C13750D14750EC3
:10160D0015750F167510177B127D117F101215A70A
:10161D00120F5C8F087BFF7A04793685081212074A
:03162D00DC80ED71
:03000000020ED01D
:0C0ED000787FE4F6D8FD75817F020F17D3
:10044400E709F608DFFA8046E709F208DFFA803E9A
:1004540088828C83E709F0A3DFFA8032E309F60887
:10046400DFFA8078E309F208DFFA807088828C83EF
:10047400E309F0A3DFFA806489828A83E0A3F608A3
:10048400DFFA805889828A83E0A3F208DFFA804C7D
:1004940080D280FA80C680D4806980F28033801054
:1004A40080A680EA809A80A880DA80E280CA8033BD
:1004B40089828A83ECFAE493A3C8C582C8CCC58335
:1004C400CCF0A3C8C582C8CCC583CCDFE9DEE78005
:1004D4000D89828A83E493A3F608DFF9ECFAA9F084
:1004E400EDFB2289828A83ECFAE0A3C8C582C8CCDA
:1004F400C583CCF0A3C8C582C8CCC583CCDFEADEF3
:10050400E880DB89828A83E493A3F208DFF980CC54
:1005140088F0EF60010E4E60C388F0ED2402B4044D
:100524000050B9F582EB2402B4040050AF232345F4
:0605340082239004947381
:10053A00BB010689828A83E0225002E722BBFE02BF
:09054A00E32289828A83E49322F2
:10055300BB010CE58229F582E5833AF583E022505D
:1005630006E92582F8E622BBFE06E92582F8E222A7
:0D057300E58229F582E5833AF583E49322C1
:10058000BB010689828A83F0225002F722BBFE015A
:02059000F32254
:10059200F8BB010DE58229F582E5833AF583E8F09F
:1005A200225006E92582C8F622BBFE05E92582C84B
:0205B200F22233
:1005B400BB010A89828A83E0F5F0A3E02250068712
:1005C400F009E71922BBFE07E3F5F009E3192289D4
:0B05D400828A83E493F5F07401932207
:1005DF00E88FF0A4CC8BF0A42CFCE98EF0A42CFCBB
:1005EF008AF0EDA42CFCEA8EF0A4CDA8F08BF0A439
:1005FF002DCC3825F0FDE98FF0A42CCD35F0FCEB98
:10060F008EF0A4FEA9F0EB8FF0A4CFC5F02ECD395C
:0F061F00FEE43CFCEAA42DCE35F0FDE43CFC22C9
:10062E0075F008758200EF2FFFEE33FECD33CDCC83
:10063E0033CCC58233C5829BED9AEC99E582984006
:10064E000CF582EE9BFEED9AFDEC99FC0FD5F0D6E3
:10065E00E4CEFBE4CDFAE4CCF9A88222B800C1B90D
:10066E000059BA002DEC8BF084CFCECDFCE5F0CB4B
:10067E00F97818EF2FFFEE33FEED33FDEC33FCEB84
:10068E0033FB10D703994004EB99FB0FD8E5E4F93F
:10069E00FA227818EF2FFFEE33FEED33FDEC33FC2C
:1006AE00C933C910D7059BE99A4007EC9BFCE99A20
:1006BE00F90FD8E0E4C9FAE4CCFB2275F010EF2F65
:1006CE00FFEE33FEED33FDCC33CCC833C810D70765
:1006DE009BEC9AE899400AED9BFDEC9AFCE899F8A0
:0E06EE000FD5F0DAE4CDFBE4CCFAE4C8F92233
:0E06FC00C3E49FFFE49EFEE49DFDE49CFC220F
:10070A00EB9FF5F0EA9E42F0E99D42F0E89C45F045
:01071A0022BC
:10071B00BB010789828A8302078D5005E9F802071E
:10072B0081BBFE05E9F802079989828A830207A536
:10073B00BB010789828A830207BE5005E9F80207CD
:10074B00B5BBFE05E9F80207C789828A830207D089
:10075B00D083D082F8E4937012740193700DA3A32D
:10076B0093F8740193F5828883E473740293686041
:06077B00EFA3A3A380DF41
:100EDC000210D5E493A3F8E493A34003F68001F247
:100EEC0008DFF48029E493A3F85407240CC8C33317
:100EFC00C4540F4420C8834004F456800146F6DFE6
:100F0C00E4800B0102040810204080901975E47EE7
:100F1C00019360BCA3FF543F30E509541FFEE493DA
:100F2C00A360010ECF54C025E060A840B8E493A3A1
:100F3C00FAE493A3F8E493A3C8C582C8CAC583CACC
:100F4C00F0A3C8C582C8CAC583CADFE9DEE780BE84
:01198D000059
:0C078100E6FC08E6FD08E6FE08E6FF22A4
:0C078D00E0FCA3E0FDA3E0FEA3E0FF22DF
:0C079900E2FC08E2FD08E2FE08E2FF229C
:1007A500E493FC740193FD740293FE740393FF229A
:0907B500E6FB08E6FA08E6F92269
:0907BE00E0FBA3E0FAA3E0F9223C
:0907C700E2FB08E2FA08E2F92263
:0C07D000E493FB740193FA740293F92285
:00000001FF
