:1000BA00120022E4FF1201787F01120178E4F50DA3
:1000CA00AD0DE4FF120163AD0D7F011201637F02E2
:1000DA007E0012014C050DE50DC3946440E2750DD6
:1000EA0064E50DD3940040D5AD0DE4FF120163AD74
:1000FA000D7F011201637F027E0012014C150D80F3
:01010A00E014
:0F018C00010932010B00010A32010C00010800C9
:0900220075CAC875CBFFD2AD22EE
:10016300EDD3946440027D64EF1460060470058D42
:0501730009228D0A22A3
:10017800EF14600804700C750B018003750C01D234
:04018800CAD2AF2206
:10000300E4FEEF146008047008E4F50B8003E4F5E4
:0E0013000CE50B4206E50C4206EE24FF92CAF5
:0100210022BC
:03002B0002010BC4
:10010B00C0E0C0D0C2CFE508C394644005750800B9
:10011B0080020508E50BB4010FE508B50904C2B66A
:10012B008006E5087002D2B6E50CB4010FE508B500
:10013B000A04C2B78006E5087002D2B7D0D0D0E06F
:01014B003281
:0C019C00EF4E6007EF1F70F81E80F52288
:10014C00AD07AC06ED4C600E7F707E0012019CED8D
:07015C001D70F11C80EE2272
:0300000002002ECD
:0C002E00787FE4F6D8FD75810D020075A6
:10003A000200BAE493A3F8E493A34003F68001F222
:10004A0008DFF48029E493A3F85407240CC8C333C7
:10005A00C4540F4420C8834004F456800146F6DF96
:10006A00E4800B010204081020408090018CE47E99
:10007A00019360BCA3FF543F30E509541FFEE4938B
:10008A00A360010ECF54C025E060A840B8E493A352
:10009A00FAE493A3F8E493A3C8C582C8CAC583CA7D
:1000AA00F0A3C8C582C8CAC583CADFE9DEE780BE35
:01019B000063
:00000001FF
