:101189004465633A2564200A4865783A2578200A37
:1011990042696E3A2562200A466C6F61743A256687
:0111A9000045
:100E72007508047509D21210D61210997BFF7A00F8
:100E82007903120FE97FB87E0B1211EA1210997BD7
:100E9200FF7A11798985080D85090E85080F850964
:100EA2001085081185091275161F7515BF75148EE8
:100EB2007513451207B97FB87E0B1211EA12109909
:100EC2007D2DE4FF120F807D327F01120F807D5253
:100ED2007F02120F807D4A7F03120F807FB87E0B44
:100EE2001211EA1210997D2DE4FF120DD37D327F8B
:100EF20001120DD37D527F02120DD37D4A7F031260
:0C0F02000DD37FB87E0B1211EA020E7BAB
:0C122300EF4E6007EF1F70F81E80F522F0
:1011EA00AD07AC06ED4C600E7F707E00121223ED47
:0711FA001D70F11C80EE22C4
:100403000000000000000000000000000000002FBA
:1004130000000000000000070000000700000014B7
:10042300007F0014007F00140024002A007F002AAC
:100433000012002300130008006400620036004924
:1004430000550022005000000005000300000000DA
:100453000000001C002200410000000000410022B7
:10046300001C000000140008003E000800140008EF
:100473000008003E000800080000000000A0006023
:1004830000000008000800080008000800000060E1
:1004930000600000000000200010000800040002BB
:1004A300003E005100490045003E00000042007F2D
:1004B3000040000000420061005100490046002155
:1004C30000410045004B0031001800140012007F6A
:1004D300001000270045004500450039003C004A54
:1004E30000490049003000010071000900050003C4
:1004F300003600490049004900360006004900491A
:100503000029001E00000036003600000000000035
:1005130000560036000000000008001400220041CD
:100523000000001400140014001400140000004123
:100533000022001400080002000100510009000617
:100543000032004900590051003E007C00120011A6
:100553000012007C007F0049004900490036003E3C
:100563000041004100410022007F00410041002280
:10057300001C007F0049004900490041007F000939
:10058300000900090001003E004100490049007ACA
:10059300007F000800080008007F00000041007F82
:1005A30000410000002000400041003F0001007FA7
:1005B3000008001400220041007F0040004000407A
:1005C3000040007F0002000C0002007F007F000457
:1005D30000080010007F003E004100410041003E42
:1005E300007F0009000900090006003E0041005198
:1005F3000021005E007F0009001900290046004623
:10060300004900490049003100010001007F000159
:100613000001003F004000400040003F001F002059
:1006230000400020001F003F004000380040003F12
:100633000063001400080014006300070008007042
:100643000008000700610051004900450043000015
:10065300007F004100410000005500AA005500AA98
:100663000055000000410041007F0000000400022B
:100673000001000200040040004000400040004030
:100683000000000300050000000000200054005497
:1006930000540078007F00480044004400380038CC
:1006A3000044004400440020003800440044004853
:1006B300007F003800540054005400180008007EE6
:1006C300000900010002001800A400A400A4007C9B
:1006D300007F000800040004007800000044007D4F
:1006E30000400000004000800084007D0000007F87
:1006F300001000280044000000000041007F00407B
:100703000000007C0004001800040078007C00084E
:10071300000400040078003800440044004400381A
:1007230000FC0024002400240018001800240024E6
:10073300001800FC007C00080004000400080048C6
:1007430000540054005400200004003F00440040C3
:100753000020003C004000400020007C001C0020E2
:1007630000400020001C003C004000300040003CE2
:1007730000440028001000280044001C00A000A032
:1007830000A0007C004400640054004C00440000BE
:100793000010007C008200000000000000FF000049
:1007A300000000000082007C001000000000000632
:0607B30000090009000628
:1010D60012123B7F3F1211AF1212427F3F1211AF25
:1010E6007F0A7E001211EA12123B7FC01211AF1264
:1010F60012427FC01211AFE4FF12113E121099E4A2
:0C110600F5467547B8754840FF02113EE1
:020F0E008F4111
:100F1000E4F543E546B40113E5482405FFE433FE58
:100F2000C3EF9480EE648094805005E541B40A03D9
:100F3000121212E541640A604674E02541F541E56C
:100F400046700AE548B480057F0112113E75F00A2B
:100F5000E541A42403F582E5F03404F58375F0023D
:100F6000E543120BE9E4740193F542FF1211CB053E
:0F0F7000480543E543B405C7E4FF1211CB05481C
:010F7F00224F
:101164008B308A318932AB30AA31A932120A4960F4
:10117400130532E5327002053114F9120A49FF12DF
:051184000F0E80E222C5
:0B0C9600F533F532F5317535037F0AA8
:020CA1008F3092
:100CA300E4F536E5306402704FE5357003020DD28A
:100CB30014FF74017E00A807088005C333CE33CE2A
:100CC300D8F9FFEE3395E0FDFCEF5534FFEE5533D5
:100CD300FEED5532FDEC5531FCE4FBFAF9F8C31295
:100CE3000BB860047F0180027F008F36E536243025
:100CF300FF120F0E153580B1E4FFFEFDFCAB34AAE5
:100D030033A932A831C3120BB8701FF536E536C3C9
:100D130095354003020DD2E536C3940A4003020D14
:100D2300D27F30120F0E053680E3E4F536E536C385
:100D33009535507CE4FFFEFDFCAB34AA33A932A801
:100D430031C3120BB86051AF30AB07E4FAF9F8AF17
:100D530034AE33AD32AC31120B18A804A905AA0680
:100D6300AB07AF30E4FCFDFE120A8DC3E5349FFFF1
:100D730074372536F8A607AF34AE33AD32AC31C085
:100D830007AF30AB07E4FAF9F8D007120B188F342A
:100D93008E338D328C318013E535F46013E535D312
:100DA300940A500C74372536F8E4F60536020D30F4
:100DB300E536601B2436F8E6FFD394094006EF249A
:0F0DC30037FF8004E62430FF120F0E153680E153
:010DD20022FE
:0607B9008B0A8A0B890C7B
:1007BF00751F0075200075210D8B1C8A1D891EABBE
:1007CF001CAA1DA91E120A49FF7003020A48F52E22
:1007DF0064256003020A3504251EF51EE4351DF558
:1007EF001DFAA91E120A49F52EC3648094B0404326
:1007FF00D3E52E648094B9503AE4F52FC3E52E6407
:10080F008094B04031D3E52E648094B95028E52E02
:10081F0024D0FFE52F75F00AA42FF52F7401251EA4
:10082F00F51EE4351DF51DAB1CFAA91E120A49F57C
:10083F002E80C9752FFFE52E120C150A312509E000
:10084F004208754308CC440A1953092E5509845898
:10085F0009AE62087563088E640A19730909750970
:10086F00597800000A3AAB1FE521F92402F521E57A
:10087F0020FA3400F520120A62F52EFF020A37AB78
:10088F001FE521F92402F521E520FA3400F52012A5
:10089F000A62F52385F022C3E5226480948050100C
:1008AF00C3E49523F523E49522F5227F2D120F0E35
:1008BF00AE22EE3395E08523348E33805CAB1FE59B
:1008CF0021F92404F521E520FA3400F520120BC993
:1008DF008F278E268D258C24EC335010120BAA8F68
:1008EF00278E268D258C247F2D120F0E852734857C
:1008FF0026338525328524318048AB1FE521F92425
:10090F0002F521E520FA3400F520120A62F5298557
:10091F00F028FFE48F34852833F532F5318023AB8F
:10092F001FE521F92404F521E520FA3400F5201202
:10093F000BC98F2D8E2C8D2B8C2A8F348E338D32AD
:10094F008C31852F357F0A020A14AB1FE521F9245C
:10095F0002F521E520FA3400F520120A62F5298507
:10096F00F028FFE48F34852833F532F531852F35A4
:10097F007F10020A14AB1FE521F92404F521E520AD
:10098F00FA3400F520120BC98F2D8E2C8D2B8C2A4B
:10099F008F348E338D328C31852F357F108066AB3F
:1009AF001FE521F92402F521E520FA3400F5201284
:1009BF000A62F52985F028E52FB4FF03752F10E49F
:1009CF00852934852833F532F531852F357F02801F
:1009DF0034AB1FE521F92404F521E520FA3400F5A5
:1009EF0020120BC98F2D8E2C8D2B8C2AE52FB4FF47
:1009FF0003752F10852D34852C33852B32852A31A5
:100A0F00852F357F02120CA18021AB1FE521F92420
:100A1F0003F521E520FA3400F520120BF5121164CD
:100A2F0080097F258002AF2E120F0E7401251EF54F
:090A3F001EE4351DF51D0207CE71
:010A4800228B
:10109900E4F50A12123B7F401211AF1211AAE4F5CE
:1010A9000BE50BB4400B1212427F401211AF121123
:1010B900AAE4FF1211CB050BE50BC3948040E205AE
:0D10C9000AE50AC3940840CBE4FF021201BF
:10113E008F44E5446003B4011CE544700512123B74
:10114E008003121242854446754840AF471211AFD4
:06115E00AF481211AF22A0
:10120100EFC39408500AEF24B8F547E4FF12113EEA
:0112110022BA
:101212000547E547D394BF40037547B8E4FF021181
:011222003E8D
:041042008F108D116D
:10104600E510C39400404BE510D394075044E511D6
:10105600C39400403DE511D394805036E511C41386
:10106600135403F512E51175F03F8485F011E5126E
:10107600700512123B8003121242851246E5104497
:10108600B8F547E5114440F548FF1211AFAF4712D6
:0210960011AF98
:011098002235
:060FE9008B0A8A0B890C43
:100FEF00E4F50D12123B7F401211AFE50D24B8FF4F
:100FFF001211AFE4F50EE50EB440101212427F400D
:10100F001211AFE50D24B8FF1211AFAB0A050CE5B5
:10101F000CAA0B7002050B14F9120A49FF1211CB1F
:10102F00050EE50EC3948040CD050DE50DC3940864
:02103F0040B1BE
:01104100228C
:020DD3008D0A87
:100DD500EFC394044003020E71E50A9464400302D4
:100DE5000E71EFC43354E0F50D2408FDE4FF121035
:100DF50042E4850A34120C96E50AC313F50A131367
:100E050013541FFFC374079FF50E750B01E50D24E1
:100E15000CFDAF0B121042E50BC3950E5005E4F522
:100E25000F802FE50BB50E27E50A131313541F7515
:100E3500F008A4FFC3E50A9FF50FC37408950FFFDB
:100E450074FFA807088002C333D8FCF50F8003752B
:100E55000FFFE4F50CAF0F1211CB050CE50CC39495
:0C0E65000C40F2050BE50BC3940840A103
:010E7100225E
:020F80008D0AD8
:100F8200EF25E004F50BEFC39404505AE50A94648C
:100F92005054E4FF12113EE4FDAF0B121042E4F58F
:100FA2000CE50CC3950A5013E50CB440057F011201
:100FB200113E7FFF1211CB050C80E6850A0CE50C71
:100FC200C394645013E50CB440057F0112113EE452
:100FD200FF1211CB050C80E67D69AF0B121042E4C3
:060FE200850A34120C9692
:010FE80022E6
:0511AA00E50A24B8FF76
:1011AF008F451211128545A05380FE5380FD438059
:0C11BF00047F017E001212235380FB22EB
:1011CB008F44121112E5446549F5A0438001538009
:0F11DB00FD4380047F017E001212235380FB220C
:07123B004380085380EF22FD
:071242004380105380F722E6
:1011120043A0805380FE4380025380FB7F0A7E00FF
:101122001212234380047F0A7E00121223E5A030AC
:0B113200E7047F0180027F00EF70DE09
:01113D00228F
:1000030000000000000000000000000000000000ED
:100013000000000000000080C0E0E0F0F0F0F8F81D
:10002300FCFCFCFCFEFEFEFEFEFEFEFEFEFE7E7EF5
:100033007E7CFCFCFCF8F8F0F0F0E0C0C08000002F
:1000430080C0E0E0F0F0F8F8FCFCFCFCFEFEFEFEF5
:10005300FEFEFEFEFEFEFEFEFEFEFEFEFCFCFCF8C9
:10006300F8F8F0F0E0E0C0800000000000000000BD
:10007300000000000000000000000000000000007D
:10008300000000000000000000000000000000006D
:10009300C0E0F0F8FEFFFFFFFFFFFFFFFFFFFFFFE2
:1000A300FFFF3F1F0F070381C1E0E0F0F0F0F8F816
:1000B300F8F0F0F0F0E0E1C18307070F3F7FFFFFA7
:1000C300FFFFFFFFFFFFFFFFFF0101010181FFFFB3
:1000D3000101010183FFFF0101010183FFFF010111
:1000E3000101FFFFFFFFFFFFFFFEFCF8F0E08000D0
:1000F30000000000000000000000000000000000FD
:1001030000000000000000000000000000E0FCFF11
:10011300FFFFFFFFFFFFFFFFFFFFFFFFFFFFFFFFEC
:100123008700000000FCFFFFFFFFFFFFFFFFFFFF53
:10013300FFFFFFFFFFFFFFFFFFFE3800000003FF8D
:10014300FF71717171717171FFF9F9F9FFFFFFFFB0
:10015300FFFFFFFFFFFFFFFFFFFFFFFFFFFFFFFFAC
:10016300FFFFFF71717171717171FFFFFFFFFFFF7E
:10017300F8C00000000000000000000000000000C4
:100183000000000000000000000000007CFFFFFFF3
:10019300FFFFFFFFFFFFFFFFFFFFFFFFFFFFFFFF6C
:1001A300FFFC7060000003070F0F1F1F3F3F3F3F1F
:1001B3003F3F3F3F1F1F0F070381C0E0F0FCFFFFDE
:1001C300FF1C181818181818FFFFFFFFFFFFFFFF89
:1001D300FFFFFFFFFFFFFFFFFFFFFFFFFFFFFFFF2C
:1001E300FFFFFF18181818181818FFFFFFFFFFFF6D
:1001F300FFFF0000000000000000000000000000FE
:10020300000000000000000000000000000F7FFF5E
:10021300FFFFFFFFFFFFFFFFFFFF7F3F1F0F0703EF
:1002230081C0E0F0F8FCFEFFFEFEFEFCFCFCFCFCE3
:10023300FCFCFCFCFEFEFEFFFFFFFFFFFFFFFFFFDA
:10024300FF86868686868686FFFFFFFFFFFFFFFF0A
:10025300FFFFFFFFFFFFFFFFFFFFFFFFFFFFFFFFAB
:10026300FFFFFF86868686868686FFFFFFFFFF7F6A
:100273001F03000000000000000000000000000059
:10028300000000000000000000000000000000016A
:10029300030F1F3F7FEFC78381C0E0F0F8FCFEFF31
:1002A300FFFFFFFFFFFFFFFFFFFFFFFFFFFFFFFF5B
:1002B300FFFFFFFFFFFFFFFFFFFFFFFFFFFFFFFF4B
:1002C300FFFFFFFFFFFFFFFFFFC0C0C0C0C0FFFF76
:1002D300C0C0C0C0C0FFFFC0C0C0C0C0FFFFC0C01F
:1002E300C0C0FFFFFFFFFFFFFF7F3F1F0F030100A2
:1002F30000000000000000000000000000000000FB
:1003030000000000000000000000008080808000EA
:1003130000000000000001010307070F0F9F1F3FAC
:100323003F3F7F7F7F7F7F7F7F7F7F7F7F7F7FFFDA
:10033300FFFFBF3F3F3F1F1F0F0F07070381010051
:1003430001010307070F0F1F1F1F3F3FBF3F7F7FA2
:100353007F7FFF7F7F7F7F7F7F7F3F3F3F3F9F1F6A
:100363001F0F0F070703010100000000000000003A
:10037300000000000000000000000000000000007A
:1003830000000000000000000000007F444444001F
:100393004266181C664000FE42427E00007F003C1D
:1003A30042423C00007E0202003C4A4A6E00007F4B
:1003B30044444400007E02027C02027C007F4242ED
:1003C3007E00003C4A4A6E00003C42427F00003CF3
:1003D30042427F00003C4A4A6E00003C42427F009A
:1003E300004000003C42424224003C42423C0000A8
:1003F3007E02027C02027C0000000000000000007C
:0300000002122FBA
:0C122F00787FE4F6D8FD758149020E724C
:100A4900BB010689828A83E0225002E722BBFE02AB
:090A5900E32289828A83E49322DE
:100A6200BB010A89828A83E0F5F0A3E0225006875F
:100A7200F009E71922BBFE07E3F5F009E319228921
:0B0A8200828A83E493F5F07401932254
:100A8D00E88FF0A4CC8BF0A42CFCE98EF0A42CFC08
:100A9D008AF0EDA42CFCEA8EF0A4CDA8F08BF0A486
:100AAD002DCC3825F0FDE98FF0A42CCD35F0FCEBE5
:100ABD008EF0A4FEA9F0EB8FF0A4CFC5F02ECD39AA
:0F0ACD00FEE43CFCEAA42DCE35F0FDE43CFC2217
:100ADC0075F008758200EF2FFFEE33FECD33CDCCD1
:100AEC0033CCC58233C5829BED9AEC99E582984054
:100AFC000CF582EE9BFEED9AFDEC99FC0FD5F0D631
:100B0C00E4CEFBE4CDFAE4CCF9A88222B800C1B95A
:100B1C000059BA002DEC8BF084CFCECDFCE5F0CB98
:100B2C00F97818EF2FFFEE33FEED33FDEC33FCEBD1
:100B3C0033FB10D703994004EB99FB0FD8E5E4F98C
:100B4C00FA227818EF2FFFEE33FEED33FDEC33FC79
:100B5C00C933C910D7059BE99A4007EC9BFCE99A6D
:100B6C00F90FD8E0E4C9FAE4CCFB2275F010EF2FB2
:100B7C00FFEE33FEED33FDCC33CCC833C810D707B2
:100B8C009BEC9AE899400AED9BFDEC9AFCE899F8ED
:0E0B9C000FD5F0DAE4CDFBE4CCFAE4C8F92280
:0E0BAA00C3E49FFFE49EFEE49DFDE49CFC225C
:100BB800EB9FF5F0EA9E42F0E99D42F0E89C45F093
:010BC800220A
:100BC900BB010789828A83020C475005E9F8020CA8
:100BD9003BBBFE05E9F8020C5389828A83020C5F4C
:0C0BE900A42582F582E5F03583F5832217
:100BF500BB010789828A83020C785005E9F8020C4B
:100C05006FBBFE05E9F8020C8189828A83020C8A92
:100C1500D083D082F8E4937012740193700DA3A36E
:100C250093F8740193F5828883E473740293686082
:060C3500EFA3A3A380DF82
:0C0C3B00E6FC08E6FD08E6FE08E6FF22E5
:0C0C4700E0FCA3E0FDA3E0FEA3E0FF2220
:0C0C5300E2FC08E2FD08E2FE08E2FF22DD
:100C5F00E493FC740193FD740293FE740393FF22DB
:090C6F00E6FB08E6FA08E6F922AA
:090C7800E0FBA3E0FAA3E0F9227D
:090C8100E2FB08E2FA08E2F922A4
:0C0C8A00E493FB740193FA740293F922C6
:00000001FF
