:100003000000000000000000000000000000002FBE
:1000130000000000000000070000000700000014BB
:10002300007F0014007F00140024002A007F002AB0
:100033000012002300130008006400620036004928
:1000430000550022005000000005000300000000DE
:100053000000001C002200410000000000410022BB
:10006300001C000000140008003E000800140008F3
:100073000008003E000800080000000000A0006027
:1000830000000008000800080008000800000060E5
:1000930000600000000000200010000800040002BF
:1000A300003E005100490045003E00000042007F31
:1000B3000040000000420061005100490046002159
:1000C30000410045004B0031001800140012007F6E
:1000D300001000270045004500450039003C004A58
:1000E30000490049003000010071000900050003C8
:1000F300003600490049004900360006004900491E
:100103000029001E00000036003600000000000039
:1001130000560036000000000008001400220041D1
:100123000000001400140014001400140000004127
:10013300002200140008000200010051000900061B
:100143000032004900590051003E007C00120011AA
:100153000012007C007F0049004900490036003E40
:100163000041004100410022007F00410041002284
:10017300001C007F0049004900490041007F00093D
:10018300000900090001003E004100490049007ACE
:10019300007F000800080008007F00000041007F86
:1001A30000410000002000400041003F0001007FAB
:1001B3000008001400220041007F0040004000407E
:1001C3000040007F0002000C0002007F007F00045B
:1001D30000080010007F003E004100410041003E46
:1001E300007F0009000900090006003E004100519C
:1001F3000021005E007F0009001900290046004627
:10020300004900490049003100010001007F00015D
:100213000001003F004000400040003F001F00205D
:1002230000400020001F003F004000380040003F16
:100233000063001400080014006300070008007046
:100243000008000700610051004900450043000019
:10025300007F004100410000005500AA005500AA9C
:100263000055000000410041007F0000000400022F
:100273000001000200040040004000400040004034
:10028300000000030005000000000020005400549B
:1002930000540078007F00480044004400380038D0
:1002A3000044004400440020003800440044004857
:1002B300007F003800540054005400180008007EEA
:1002C300000900010002001800A400A400A4007C9F
:1002D300007F000800040004007800000044007D53
:1002E30000400000004000800084007D0000007F8B
:1002F300001000280044000000000041007F00407F
:100303000000007C0004001800040078007C000852
:10031300000400040078003800440044004400381E
:1003230000FC0024002400240018001800240024EA
:10033300001800FC007C00080004000400080048CA
:1003430000540054005400200004003F00440040C7
:100353000020003C004000400020007C001C0020E6
:1003630000400020001C003C004000300040003CE6
:1003730000440028001000280044001C00A000A036
:1003830000A0007C004400640054004C00440000C2
:100393000010007C008200000000000000FF00004D
:1003A300000000000082007C001000000000000636
:0603B3000009000900062C
:1003B9007FAE1206117FD51206117F801206117FBA
:1003C900A81206117F3F1206117FD3120611E4FF0E
:1003D9001206117F401206117F8D1206117F141229
:1003E90006117F20120611E4FF1206117FA11206E1
:1003F900117FC81206117FDA1206117F1212061137
:100409007F811206117FCF1206117FD91206117F43
:10041900F11206117FDB1206117F401206117FA42B
:100429001206117FA61206117FAF120611020439B6
:0204A4008F0BBC
:1004A600E4F50DE5112405FFE433FEC3EF9480EE79
:1004B600648094805005E50BB40A03120632E50BFE
:1004C600640A603874E0250BF50B75F00AE50BA499
:1004D6002403F582E5F03400F58375F002E50D128C
:1004E60005E4E4740193F50CFF1205F00511050D02
:0C04F600E50DB405D5E4FF1205F005117A
:0105020022D6
:1005A6008B088A09890AAB08AA09A90A1205CB6031
:1005B60013050AE50A7002050914F91205CBFF12A4
:0505C60004A480E22204
:100439007F21120611E4FF1206117F7F1206117F38
:1004490022120611E4FF1206117F071206117F78A6
:100459001206257F401205F0E4F508F509E4FF12BC
:1004690005F00509E50970020508C3E508648094EB
:100479008440EA7F21120611E4FF1206117F7F12E0
:1004890006117F22120611E4FF1206117F071206D8
:0B049900117F781206257F400205F05D
:0C0632000512531207E4FDAF120205038D
:100503008F0E8D0FE50ED394075034E50F947F5073
:100513002E850E12850F117F21120611AF0F1206C1
:10052300117F7F1206117F22120611AF0E120611E0
:100533007F071206117F781206257F401205F022ED
:0D062500C281D281D280C281C2800205F064
:09065400C281D280C281D2812250
:0A064A00D281D2802081FDC28022FF
:1005F000C2807E07EFA806088002C313D8FC1392BE
:1006000081D280C2801EC3EE6480948050E60206D0
:010610004A9F
:100611008F107F78120625E4FF1205F0AF10120546
:04062100F002065489
:100578004F6C656420496E746572666163650057E7
:1005880069746820383035312046726F6D004578BF
:0E059800706C6F7265656D6265646465640009
:100543001203B9E4FD7F021205037BFF7A05797874
:100553001205A67D147F041205037BFF7A057987B4
:100563001205A67D1E7F061205037BFF7A05799689
:050573001205A680FE48
:0300000002063EB7
:0C063E00787FE4F6D8FD758112020543B8
:1005CB00BB010689828A83E0225002E722BBFE022E
:0905DB00E32289828A83E4932261
:0C05E400A42582F582E5F03583F5832222
:00000001FF
