:10026C003F065B4F666D7D077F6F777C395E7971DA
:0C0240007408251BF8E6F5A07F017E0085
:10024C00E4FDFCC3ED9FEC9E5015E4FBFA0BBB00E8
:0F025C00010AEB64644A70F50DBD00010C80E4EB
:01026B002270
:1001840078087C007D007BFF7A02796C7E007F100A
:100194001200D3900000E4F51CF51D8583188582B8
:1001A40019AE18AF197C037DE81200F98E1A8F1B63
:1001B400AE18AF197C037DE81200F98C188D1975FF
:1001C40080FE120240AE18AF197C007D641200F963
:1001D4008E1A8F1BAE18AF197C007D641200F98C47
:1001E400188D197580FD120240AE18AF197C007D80
:1001F4000A1200F98E1A8F1B7580FB120240AE188A
:10020400AF197C007D0A1200F98C1A8D1B7580F7DA
:10021400120240051DE51D7002051CC39464E51C13
:1002240064809480500302019FA3E58264107004EB
:0C023400E5836427600302019A02019731
:0300000002027C7D
:0C027C00787FE4F6D8FD75811D02018436
:10000300E709F608DFFA8046E709F208DFFA803EDF
:1000130088828C83E709F0A3DFFA8032E309F608CC
:10002300DFFA8078E309F208DFFA807088828C8334
:10003300E309F0A3DFFA806489828A83E0A3F608E8
:10004300DFFA805889828A83E0A3F208DFFA804CC2
:1000530080D280FA80C680D4806980F28033801099
:1000630080A680EA809A80A880DA80E280CA803302
:1000730089828A83ECFAE493A3C8C582C8CCC5837A
:10008300CCF0A3C8C582C8CCC583CCDFE9DEE7804A
:100093000D89828A83E493A3F608DFF9ECFAA9F0C9
:1000A300EDFB2289828A83ECFAE0A3C8C582C8CC1F
:1000B300C583CCF0A3C8C582C8CCC583CCDFEADE38
:1000C300E880DB89828A83E493A3F208DFF980CC9A
:1000D30088F0EF60010E4E60C388F0ED2402B40493
:1000E3000050B9F582EB2402B4040050AF2323453A
:0600F3008223900053730C
:1000F900C2D5EC30E709B2D5E4C39DFDE49CFCEE22
:1001090030E715B2D5E4C39FFFE49EFE12012FC369
:10011900E49DFDE49CFC800312012F30D507C3E464
:060129009FFFE49EFE2290
:10012F00BC000BBE0029EF8DF084FFADF022E4CCB4
:10013F00F875F008EF2FFFEE33FEEC33FCEE9DEC7D
:10014F00984005FCEE9DFE0FD5F0E9E4CEFD22EDC3
:10015F00F8F5F0EE8420D21CFEADF075F008EF2F0D
:10016F00FFED33FD4007985006D5F0F222C398FDFE
:05017F000FD5F0EA229B
:00000001FF
